{
  "contractName": "Eatsafe",
  "abi": [
    {
      "anonymous": false,
      "inputs": [
        {
          "indexed": false,
          "name": "fromm",
          "type": "string"
        },
        {
          "indexed": false,
          "name": "to",
          "type": "string"
        },
        {
          "indexed": false,
          "name": "asset",
          "type": "string"
        },
        {
          "indexed": false,
          "name": "timestamp",
          "type": "string"
        },
        {
          "indexed": false,
          "name": "quantity",
          "type": "uint256"
        },
        {
          "indexed": false,
          "name": "temperature",
          "type": "int16"
        },
        {
          "indexed": false,
          "name": "humidity",
          "type": "uint256"
        },
        {
          "indexed": false,
          "name": "gas",
          "type": "uint256"
        },
        {
          "indexed": false,
          "name": "airqual",
          "type": "uint256"
        },
        {
          "indexed": false,
          "name": "soilmois",
          "type": "uint256"
        }
      ],
      "name": "EatSafe",
      "type": "event"
    },
    {
      "constant": false,
      "inputs": [
        {
          "name": "_from",
          "type": "string"
        },
        {
          "name": "_to",
          "type": "string"
        },
        {
          "name": "_asset",
          "type": "string"
        },
        {
          "name": "_timestamp",
          "type": "string"
        },
        {
          "name": "_quantity",
          "type": "uint256"
        },
        {
          "name": "temperature",
          "type": "int16"
        },
        {
          "name": "humidity",
          "type": "uint256"
        },
        {
          "name": "gas",
          "type": "uint256"
        },
        {
          "name": "airqual",
          "type": "uint256"
        },
        {
          "name": "soilmois",
          "type": "uint256"
        }
      ],
      "name": "setter",
      "outputs": [],
      "payable": false,
      "stateMutability": "nonpayable",
      "type": "function"
    },
    {
      "constant": true,
      "inputs": [],
      "name": "getter",
      "outputs": [
        {
          "name": "",
          "type": "string"
        },
        {
          "name": "",
          "type": "string"
        },
        {
          "name": "",
          "type": "string"
        },
        {
          "name": "",
          "type": "string"
        },
        {
          "name": "",
          "type": "uint256"
        },
        {
          "name": "",
          "type": "int16"
        },
        {
          "name": "",
          "type": "uint256"
        },
        {
          "name": "",
          "type": "uint256"
        },
        {
          "name": "",
          "type": "uint256"
        },
        {
          "name": "",
          "type": "uint256"
        }
      ],
      "payable": false,
      "stateMutability": "view",
      "type": "function"
    }
  ],
  "bytecode": "0x608060405234801561001057600080fd5b50610a68806100206000396000f30060806040526004361061004c576000357c0100000000000000000000000000000000000000000000000000000000900463ffffffff1680633e9a01f214610051578063993a04b7146101cb575b600080fd5b34801561005d57600080fd5b506101c9600480360381019080803590602001908201803590602001908080601f0160208091040260200160405190810160405280939291908181526020018383808284378201915050505050509192919290803590602001908201803590602001908080601f0160208091040260200160405190810160405280939291908181526020018383808284378201915050505050509192919290803590602001908201803590602001908080601f0160208091040260200160405190810160405280939291908181526020018383808284378201915050505050509192919290803590602001908201803590602001908080601f016020809104026020016040519081016040528093929190818152602001838380828437820191505050505050919291929080359060200190929190803560010b9060200190929190803590602001909291908035906020019092919080359060200190929190803590602001909291905050506103cf565b005b3480156101d757600080fd5b506101e06106d1565b60405180806020018060200180602001806020018b81526020018a60010b60010b815260200189815260200188815260200187815260200186815260200185810385528f818151815260200191508051906020019080838360005b8381101561025657808201518184015260208101905061023b565b50505050905090810190601f1680156102835780820380516001836020036101000a031916815260200191505b5085810384528e818151815260200191508051906020019080838360005b838110156102bc5780820151818401526020810190506102a1565b50505050905090810190601f1680156102e95780820380516001836020036101000a031916815260200191505b5085810383528d818151815260200191508051906020019080838360005b83811015610322578082015181840152602081019050610307565b50505050905090810190601f16801561034f5780820380516001836020036101000a031916815260200191505b5085810382528c818151815260200191508051906020019080838360005b8381101561038857808201518184015260208101905061036d565b50505050905090810190601f1680156103b55780820380516001836020036101000a031916815260200191505b509e50505050505050505050505050505060405180910390f35b89600090805190602001906103e5929190610997565b5088600190805190602001906103fc929190610997565b508760029080519060200190610413929190610997565b50866004908051906020019061042a929190610997565b50856003819055507f25872567274e1a80e293d0ef154ce4e2495f675f6c1294c9f25a82227f865a3f60006001600260046003548a8a8a8a8a60405180806020018060200180602001806020018b81526020018a60010b60010b815260200189815260200188815260200187815260200186815260200185810385528f8181546001816001161561010002031660029004815260200191508054600181600116156101000203166002900480156105225780601f106104f757610100808354040283529160200191610522565b820191906000526020600020905b81548152906001019060200180831161050557829003601f168201915b505085810384528e8181546001816001161561010002031660029004815260200191508054600181600116156101000203166002900480156105a55780601f1061057a576101008083540402835291602001916105a5565b820191906000526020600020905b81548152906001019060200180831161058857829003601f168201915b505085810383528d8181546001816001161561010002031660029004815260200191508054600181600116156101000203166002900480156106285780601f106105fd57610100808354040283529160200191610628565b820191906000526020600020905b81548152906001019060200180831161060b57829003601f168201915b505085810382528c8181546001816001161561010002031660029004815260200191508054600181600116156101000203166002900480156106ab5780601f10610680576101008083540402835291602001916106ab565b820191906000526020600020905b81548152906001019060200180831161068e57829003601f168201915b50509e50505050505050505050505050505060405180910390a150505050505050505050565b6060806060806000806000806000806000600160026004600354600560009054906101000a900460010b600654600754600854600954898054600181600116156101000203166002900480601f01602080910402602001604051908101604052809291908181526020018280546001816001161561010002031660029004801561079c5780601f106107715761010080835404028352916020019161079c565b820191906000526020600020905b81548152906001019060200180831161077f57829003601f168201915b50505050509950888054600181600116156101000203166002900480601f0160208091040260200160405190810160405280929190818152602001828054600181600116156101000203166002900480156108385780601f1061080d57610100808354040283529160200191610838565b820191906000526020600020905b81548152906001019060200180831161081b57829003601f168201915b50505050509850878054600181600116156101000203166002900480601f0160208091040260200160405190810160405280929190818152602001828054600181600116156101000203166002900480156108d45780601f106108a9576101008083540402835291602001916108d4565b820191906000526020600020905b8154815290600101906020018083116108b757829003601f168201915b50505050509750868054600181600116156101000203166002900480601f0160208091040260200160405190810160405280929190818152602001828054600181600116156101000203166002900480156109705780601f1061094557610100808354040283529160200191610970565b820191906000526020600020905b81548152906001019060200180831161095357829003601f168201915b50505050509650995099509950995099509950995099509950995090919293949596979899565b828054600181600116156101000203166002900490600052602060002090601f016020900481019282601f106109d857805160ff1916838001178555610a06565b82800160010185558215610a06579182015b82811115610a055782518255916020019190600101906109ea565b5b509050610a139190610a17565b5090565b610a3991905b80821115610a35576000816000905550600101610a1d565b5090565b905600a165627a7a72305820b91bc9bcff48e6d0331ec215bec341fc6920c3087e7ea5f3c36fb34c6085e3b70029",
  "source": "pragma solidity ^0.4.18;\ncontract Eatsafe{\n\n        // Identification\n    string fromm;\n    string to;\n    string asset;\n        \n        \n        // qualitative and quantitative analysis\n    uint quantity;\n    string timestamp;\n\n    int16 temperature;\n    uint humidity;\n    uint gas;\n    uint airqual;\n    uint soilmois;\n        \n        // timestamp\n\n        // Eatsafe event\n    event EatSafe(\n            \n        string fromm,string to,string asset,string timestamp, \n        uint quantity, int16 temperature, uint humidity, uint gas,\n        uint airqual, uint soilmois\n        \n    );\n        \n        // Sets the values and emits the event \n    function setter(\n        string _from, string _to, string _asset,\n        string _timestamp, uint _quantity, \n        int16 temperature, uint humidity, uint gas, uint airqual, \n        uint soilmois\n        ) public {\n\n        fromm = _from;\n        to = _to;\n        asset = _asset;\n        timestamp = _timestamp;\n        quantity = _quantity;\n        emit EatSafe(fromm, to, asset, timestamp, quantity, temperature, humidity, gas, airqual, soilmois);\n            \n    }\n        \n        // gets the values\n    function getter() public constant returns (string, string, string, string, uint, int16, uint, uint,\n        uint, uint) {\n        return(fromm, to, asset, timestamp, quantity, temperature, humidity, gas, airqual, soilmois);\n    }\n}",
  "sourcePath": "/media/arjun1234/DATA/eatsafe/eatsafe-eth/contracts/eatsafe.sol",
  "compiler": {
    "name": "solc",
    "version": "0.4.24+commit.e67f0147.Emscripten.clang"
  },
  "schemaVersion": "2.0.1",
  "updatedAt": "2018-10-21T03:53:53.801Z"
}